[
    {
        "descr": "correct transaction",
        "success": true,
        "fuzzer": true,
        "request": {
            "method": "eth_getTransactionByBlockHashAndIndex",
            "params": [
                "0x389eef428d248d31ad0f9cfcb6dec01417ea4779a9241bd55e14bfc7cb83a4e9",
                "0xab"
            ]
        },
        "response": [
            {
                "result": {
                    "blockHash": "0x389eef428d248d31ad0f9cfcb6dec01417ea4779a9241bd55e14bfc7cb83a4e9",
                    "blockNumber": "0x6920ca",
                    "chainId": "0x1",
                    "condition": null,
                    "creates": null,
                    "from": "0xc33ffac8030c7c50d8994015c88d502a3240dec7",
                    "gas": "0x30d40",
                    "gasPrice": "0xee6b2800",
                    "hash": "0x3ddc5012709aa350f4d27aad023410605087aa3dea92a7308c164584a92a5199",
                    "input": "0x1019635d000000000000000000000000778f68923f1f2a40117b3db98083851c5d2e37ef000000000000000000000000000000000000000000000000000000000000000200000000000000000000000000000000000000000000000821ab0d4414980000",
                    "nonce": "0x40d1",
                    "publicKey": "0x3dbf0a3e43e65ecc8a7627b354654ce280788332f0d8b382b0578df3ba41b4b9992b0cf38a5670782c6623de8ec96fd27cfdceda9e661670c5b37ae5d0ef7f78",
                    "r": "0x22d47e325a8755f444e73db8d24f58269148b3e0ecf7868651490e75a4f96c64",
                    "raw": "0xf8cb8240d184ee6b280083030d4094752ff65b884b9c260d212c804e0b7aceea01247380b8641019635d000000000000000000000000778f68923f1f2a40117b3db98083851c5d2e37ef000000000000000000000000000000000000000000000000000000000000000200000000000000000000000000000000000000000000000821ab0d441498000025a022d47e325a8755f444e73db8d24f58269148b3e0ecf7868651490e75a4f96c64a0166e6eb1cea44f4b68345e026de87f0959807ddad59fb5dde94e35580732c426",
                    "s": "0x166e6eb1cea44f4b68345e026de87f0959807ddad59fb5dde94e35580732c426",
                    "standardV": "0x0",
                    "to": "0x752ff65b884b9c260d212c804e0b7aceea012473",
                    "transactionIndex": "0xab",
                    "v": "0x25",
                    "value": "0x0"
                },
                "id": 77,
                "in3": {
                    "proof": {
                        "type": "transactionProof",
                        "block": "0xf90214a041866d5c9892e11272ef4566268c66cea269841dded94126048c9d9decbe409da01dcc4de8dec75d7aab85b567b6ccd41ad312451b948a7413f0a142fd40d49347945a0b54d5dc17e0aadc383d2db43b0a0d3e029c4ca01ec938e4d64afff0ce8d1549a1c85629b83afaafc27ebd3d30fa1193a9e98913a0b5a0213d8326ba5c7f8db1848bb0e47c56a6ea53f083b642ee1479ab4385dc15a0959f9a01ebc25c9a9fe768a08ebf5932fd58fae6212dcefc2c0cd26984840f13b901000b08a021a0626134880110710014c01061058f270b04b20d408704b05104346006c3220402042b539a0a025053d9037b020647200c021579cce1f1982028002105082a91a2900203045a425d450160a1e6003a15a8591009961eca38401b401105122050363a5117d646022404401c045613345e38589602045808194a900b00124128b0ca80a108240c1542c234398904410d80448044154827e31627111a700244c8010004241a098c7a03c900cc182d027070101b8a008044484cb0904d0358a0078a6c004000208a3085048242405018c634c3c9486202052a2e846ae24a219534be80020a101410001281009b310e4020e09a5a965d00980100ca9801568707d7aee045b35c836920ca837a121d8379cf6b845c14a29693737061726b706f6f6c2d6574682d636e2d687aa0705e05a808b3449d0d56c89e5037d341a31e4b8ba61d99f860bdf9c00632c771881105346000654ee4",
                        "merkleProof": [
                            "0xf90131a00b5b68a13ba7a0908a0e6ec35cea8909c7db9c38ec528f294bacc3e9a921e385a012c0e9215e6c8d70b6bb208bf0f045b07f1e1cf1281c2ed76bfa066bdd57356da0f259bcff22c9214bc892c278b7ddb06c542566baef3589ea201869b98dac40b1a031a3004b28320b5b34942c7fa6b4597ff5493312c9d6cb0eaf958ea9681bea17a0505ebb316da2276173a9cc0867fe8e8519df054ddf76a9a3e28ea6ef4e3fb4eea0e580081265fadc4f0ee996114b84597622ba2c6d50fa760dbf6c261e46f080b2a0563477696629da0eecec37aa4f236504091d329ceb9f1b28423906f2988f1d09a07bba91c783998dabe533dd7b362ea6498553b006ce3de4ac617021bb073e024aa070e79a6d783756d400b712d5667882c6df9188635d4204608d5cfecdbfc42e678080808080808080",
                            "0xf851a0703c0db3ea8287db7df5a27605c2d59956f3145523d3a15a78a95e128a8c7b7ba079c73b74fc965bd02631d68b94a56fd72572073687f1bb1e6de22f7380e34807808080808080808080808080808080",
                            "0xf8918080808080808080a04f5304e8278706585d11aee5d3ab51d482d07926b02449bfb9e97022f81a2939a0176904a2357ee15f0adfde00901bde8d03ea82a2251f925fecffe4d9812b3586a0d6e33550d00187f99dfeb8ba2a43fd21e1c2e90fc50407c9d4ffd8673ad18d53a0b7c9193589b232a43905549a082a19a49c1723f9b86abfa0154030140ae6eba68080808080",
                            "0xf90211a057fc7c876033aab3442e0acca396c9944e44fe0755225a9b5cab0fd7a77d70eda0b337383244c54f931fa568e074f7cfc7411a43440f0b6a7a7757b0d7e10faec2a0fe6771a834c8b101ff9ce13a6612ebbc5d0ecf99e9f8e29a6943abdf0dc90a62a0e7c1421881721538266c674b867a6de65885bed9294909340470a1380d6aa342a0f7f9420188a1bae035a7dc7ac48cb24328b8d7dbb40b767203a62c8b70080a26a04914509a44df4d2e309d2bea5e8a8c55a181d9b83641da10a017278f8a6b20eda01e89da6f55bc4476d63d7c06bad3683b1fd9f1fa1171503e923fb3cee528cffca04193f8fe37b71e95a26166eec32dbdc7e4a4e2eff36075f399b45e85d2e59dbda084a5d304743c2df00ad0b2abc0ac5db5799ae975ce77f8218edc3cccd3ba8f81a07d2b2f5445abbdc75995131f1c7d6145e793d444fda0a0c32c07eedcdf76723ea01f5b9402d08502641db2dc178944851ec5c210d8d29fc788a71271e85474f601a05139439b110cb8c6d793d72a6baf585dbba369fa17ef20d353bf842ce3fd25bca0dd5fb26ff4164a7f269a13d15e53202100244adf9fbe85ed0663190ed423639ea0dbbaa1fb7c0aac03fa7dd2665e6fa72b44e2b773c399a5430ef92a81c8d6b0d8a0db6a88971b04a7087ee3fa978e447c558792b09ddb7506891c9ffde5b4f34c18a0f2ea1647dfd4072db93cac0c61cbb0feea07f3f30d8a5d54ae25d1c66021781180",
                            "0xf8d020b8cdf8cb8240d184ee6b280083030d4094752ff65b884b9c260d212c804e0b7aceea01247380b8641019635d000000000000000000000000778f68923f1f2a40117b3db98083851c5d2e37ef000000000000000000000000000000000000000000000000000000000000000200000000000000000000000000000000000000000000000821ab0d441498000025a022d47e325a8755f444e73db8d24f58269148b3e0ecf7868651490e75a4f96c64a0166e6eb1cea44f4b68345e026de87f0959807ddad59fb5dde94e35580732c426"
                        ],
                        "txIndex": 171,
                        "signatures": []
                    }
                }
            }
        ]
    }
]
