[
    {
        "descr": "mainnet block with transactions",
        "success": true,
        "fuzzer": true,
        "verification": "proof",
        "chainId": "0x1",
        "signatures": [],
        "request": {
            "method": "eth_getBlockByHash",
            "params": [
                "0x4c45aaaf983de4bd6cd81fb0a63f93d1eed148242e1a08fe477d4803d9181372",
                true
            ]
        },
        "response": [
            {
                "jsonrpc": "2.0",
                "result": {
                    "author": "0x52bc44d5378309ee2abf1539bf71de1b7d7be3b5",
                    "difficulty": "0x8b950ceca4254",
                    "extraData": "0x6e616e6f706f6f6c2e6f7267",
                    "gasLimit": "0x7a121d",
                    "gasUsed": "0xe9ae",
                    "hash": "0x4c45aaaf983de4bd6cd81fb0a63f93d1eed148242e1a08fe477d4803d9181372",
                    "logsBloom": "0x00000000000000000000000000000000000000000000000000000000000000000000000000000000000000000000000000000000000000001000000000000000000000000000000000000000000000000000000000000000000000000000000000000000020000000001000000000800000000000000000000000120000000000000000000000000000000000000000000000000004000000000000000001000000000020000000000000000000000000000080000000020000000000000000000000000000000000001000001000000000000000000000000000000010020000000000000000000000000000000000000000000000000000000000000000000",
                    "miner": "0x52bc44d5378309ee2abf1539bf71de1b7d7be3b5",
                    "mixHash": "0x405c9e881cc7bf6134417237c45e0d33595223fd0353249d67a6262ceff08cb0",
                    "nonce": "0x26c1ba600a013de1",
                    "number": "0x6a5c56",
                    "parentHash": "0x7e9da34b60cc2321882003cdca2c739e6de36742edb924d33d0cf2fe86439b6f",
                    "receiptsRoot": "0xa0e17296e0f8bae1ab29e30dad46a9c6f932c3fde21dd4c127e0066c6782358e",
                    "sealFields": [
                        "0xa0405c9e881cc7bf6134417237c45e0d33595223fd0353249d67a6262ceff08cb0",
                        "0x8826c1ba600a013de1"
                    ],
                    "sha3Uncles": "0x1dcc4de8dec75d7aab85b567b6ccd41ad312451b948a7413f0a142fd40d49347",
                    "size": "0x2f7",
                    "stateRoot": "0xb0989d11f67425090e12f59338b747c54ae00cc9e6b96ad8b0657a9979dfde74",
                    "timestamp": "0x5c26a3b8",
                    "totalDifficulty": "0x1cb56ff8426c36f710f",
                    "transactions": [
                        {
                            "blockHash": "0x4c45aaaf983de4bd6cd81fb0a63f93d1eed148242e1a08fe477d4803d9181372",
                            "blockNumber": "0x6a5c56",
                            "chainId": "0x1",
                            "condition": null,
                            "creates": null,
                            "from": "0x52bc44d5378309ee2abf1539bf71de1b7d7be3b5",
                            "gas": "0xc350",
                            "gasPrice": "0x2540be400",
                            "hash": "0x4e63305a361339aa649dd54292e72b6ce1b67e3e25f0ed083e0e3aba267f6228",
                            "input": "0x",
                            "nonce": "0xa633f2",
                            "publicKey": "0x957027fd3b1695f5e5f44a540836df36b6e17da3a216b20d836f3ecab59353e7147d9269be6cd5049b02d82c54e4246d853bf7b246645cceb23b8ec2219a2655",
                            "r": "0x10c1ba355405efc3d72bf7fa4c8a669921d02b106fc21cb5990a0c64a80180cf",
                            "raw": "0xf86f83a633f28502540be40082c350945219467f0582689177e1f6a81aa8137352a715248802c7150324f70ca08026a010c1ba355405efc3d72bf7fa4c8a669921d02b106fc21cb5990a0c64a80180cfa0086b85fc0b506280e2c3de8d75c8db50c9b6697d4189ecc733874c3857f6c736",
                            "s": "0x86b85fc0b506280e2c3de8d75c8db50c9b6697d4189ecc733874c3857f6c736",
                            "standardV": "0x1",
                            "to": "0x5219467f0582689177e1f6a81aa8137352a71524",
                            "transactionIndex": "0x0",
                            "v": "0x26",
                            "value": "0x2c7150324f70ca0"
                        },
                        {
                            "blockHash": "0x4c45aaaf983de4bd6cd81fb0a63f93d1eed148242e1a08fe477d4803d9181372",
                            "blockNumber": "0x6a5c56",
                            "chainId": null,
                            "condition": null,
                            "creates": null,
                            "from": "0x5dcaa1d8d8132e5bf9cf12deccfc0cecf26a780d",
                            "gas": "0x5208",
                            "gasPrice": "0x3b9aca000",
                            "hash": "0xc7a2af47daba6b394ae00c422c3ff35a7bbc37622128d035b78f88758ec273b0",
                            "input": "0x",
                            "nonce": "0x2b755",
                            "publicKey": "0x173ee50d7e956160d7aad0c901d3f39b781c4fb35d7fca8ba65ca57b7eb86c1b9a8d820067a98820c2c068321b5f43a5647e9a4ff93463666de47113c7b9b2bd",
                            "r": "0xf83cae4b3eb5e7ddb6cf6e630327a3961ae6b7b14bea617057c27688c35689cd",
                            "raw": "0xf86f8302b7558503b9aca00082520894be4e8d6dc0c0fdda60c74ffea1eb35c218a8d264881f16140a80691800801ba0f83cae4b3eb5e7ddb6cf6e630327a3961ae6b7b14bea617057c27688c35689cda04923b7045bd00abd79b489983e3798ff33d3f5d41b103bbb98d6b26839b3ea93",
                            "s": "0x4923b7045bd00abd79b489983e3798ff33d3f5d41b103bbb98d6b26839b3ea93",
                            "standardV": "0x0",
                            "to": "0xbe4e8d6dc0c0fdda60c74ffea1eb35c218a8d264",
                            "transactionIndex": "0x1",
                            "v": "0x1b",
                            "value": "0x1f16140a80691800"
                        }
                    ],
                    "transactionsRoot": "0xd17b0e676e56fee289c7d9f3134305eb1e98f3c753d291db85718bcd2f40c86e",
                    "uncles": []
                },
                "id": 77,
                "in3": {
                    "proof": {
                        "type": "blockProof"
                    },
                    "currentBlock": 6985211,
                    "lastNodeList": 6619795,
                    "execTime": 233
                }
            }
        ]
    },
    {
        "descr": "kovan block with transaction hashes",
        "success": true,
        "fuzzer": true,
        "request": {
            "method": "eth_getBlockByHash",
            "params": [
                "0xfeb120ae45f1009e6c2289436d5957c58a15915288ec083658bd044101608f26",
                false
            ]
        },
        "response": [
            {
                "jsonrpc": "2.0",
                "result": {
                    "author": "0x00d6cc1ba9cf89bd2e58009741f4f7325badc0ed",
                    "difficulty": "0xfffffffffffffffffffffffffffffffe",
                    "extraData": "0xde830201088f5061726974792d457468657265756d86312e33302e30827769",
                    "gasLimit": "0x7a1200",
                    "gasUsed": "0x1ce0f",
                    "hash": "0xfeb120ae45f1009e6c2289436d5957c58a15915288ec083658bd044101608f26",
                    "logsBloom": "0x00080000000000000000000000000000000000000000000000000000000000000000000000000000000000000000000000000000000000000000000000000000000000000000000000000008000000000000000000000000000000000000000000000000000000000000100000000000000000000000800000000010000000000000000000000000000200002000000000400800000000000000000000000000000000004001000000000000000000000000000000000000000000000000000000000006000000000000000000000000000000000000000000000000000000000000000000000000000000400000000000100000000000000000000000000000",
                    "miner": "0x00d6cc1ba9cf89bd2e58009741f4f7325badc0ed",
                    "number": "0x967a46",
                    "parentHash": "0xc591335e0cdb6b21dc9af57567a6e075fc6315aff915bd79bf78a2c8815bc657",
                    "receiptsRoot": "0xfa2a0b3c0715e798ae41fd4645b0261ae4bf6d2c56f29da6fcc5fbfb7c6f19f8",
                    "sealFields": [
                        "0x8417098353",
                        "0xb841eb80c1a0be2eb7a1c14fc38759a0f9fe9c33121d72003025160a4b35119d495d34d39a9fd7475d28ba863e35f5103ed43e6f13ce31f026d3d29c0d2b1848fb4300"
                    ],
                    "sha3Uncles": "0x1dcc4de8dec75d7aab85b567b6ccd41ad312451b948a7413f0a142fd40d49347",
                    "signature": "eb80c1a0be2eb7a1c14fc38759a0f9fe9c33121d72003025160a4b35119d495d34d39a9fd7475d28ba863e35f5103ed43e6f13ce31f026d3d29c0d2b1848fb4300",
                    "size": "0x44e",
                    "stateRoot": "0xd618159b6dbd0c6213d90abbf01e06513104f0670cd79503cb2563d7ff116864",
                    "step": "386499411",
                    "timestamp": "0x5c260d4c",
                    "totalDifficulty": "0x94373700000000000000000000000484b6f390",
                    "transactions": [
                        "0x26cfadb6a0a823c623788713cb1eb7d399f89f78d599d416f7b91dca44eeb804",
                        "0x91458145d2c47527eee34e891879ac2915b3f8ba6f31911c5234928ae32cb191"
                    ],
                    "transactionsRoot": "0x4f1249c6378282b1f032cc8c2562712f2450a0bed8ce20bdd2d01b6520feb75a",
                    "uncles": []
                },
                "id": 77,
                "in3": {
                    "proof": {
                        "type": "blockProof",
                        "signatures": [],
                        "transactions": [
                            {
                                "blockHash": "0xfeb120ae45f1009e6c2289436d5957c58a15915288ec083658bd044101608f26",
                                "blockNumber": "0x967a46",
                                "chainId": null,
                                "condition": null,
                                "creates": null,
                                "from": "0x65fe9d374202f375a0941e6dd5d9097993468b68",
                                "gas": "0x2bf20",
                                "gasPrice": "0x4a817c800",
                                "hash": "0x26cfadb6a0a823c623788713cb1eb7d399f89f78d599d416f7b91dca44eeb804",
                                "input": "0xa9059cbb00000000000000000000000001503dfc5ad81bf630d83697e98601871bb211b60000000000000000000000000000000000000000000000000000000000089af8",
                                "nonce": "0x115",
                                "publicKey": "0x3453e6f377b3c7c0c2f4056bac30f5b5bff50d80a37214b7e6f1bcf827a7306a0ce20e953ce4910eeb04d687c4038254ab375bc3b80c22a55eb89b1015e19fe0",
                                "r": "0xc3851c659489b1b5f4f44a42a05148962f721dbd9cbc69177fe66af7410b2335",
                                "raw": "0xf8ac8201158504a817c8008302bf209484dd11eb2a29615303d18149c0dbfa24167f896680b844a9059cbb00000000000000000000000001503dfc5ad81bf630d83697e98601871bb211b60000000000000000000000000000000000000000000000000000000000089af81ca0c3851c659489b1b5f4f44a42a05148962f721dbd9cbc69177fe66af7410b2335a002abea1fe6883b8878abee70accf0f1293e781ae2ad1ecdea37587c8567071f2",
                                "s": "0x2abea1fe6883b8878abee70accf0f1293e781ae2ad1ecdea37587c8567071f2",
                                "standardV": "0x1",
                                "to": "0x84dd11eb2a29615303d18149c0dbfa24167f8966",
                                "transactionIndex": "0x0",
                                "v": "0x1c",
                                "value": "0x0"
                            },
                            {
                                "blockHash": "0xfeb120ae45f1009e6c2289436d5957c58a15915288ec083658bd044101608f26",
                                "blockNumber": "0x967a46",
                                "chainId": null,
                                "condition": null,
                                "creates": null,
                                "from": "0x39c39eed7bda0d6f1ac9d212e001ee704c3fe794",
                                "gas": "0xf4240",
                                "gasPrice": "0x3b9aca00",
                                "hash": "0x91458145d2c47527eee34e891879ac2915b3f8ba6f31911c5234928ae32cb191",
                                "input": "0x28fbdf0d000000000000000000000000000000000000000000000000000000000000004000000000000000000000000000000000000000000000000000000000000000a00000000000000000000000000000000000000000000000000000000000000040643962643435333366333931363332323462653266373436643364363533663333353661626262303636376339313664363430656363346439336261626136630000000000000000000000000000000000000000000000000000000000000017342c313534353939373630393331363034303430332c33000000000000000000",
                                "nonce": "0x1a3d4",
                                "publicKey": "0x2dc6aa0cf6b6b0414080b84f1735e02d04948689e8003a9c70ef586660b25c5187415eb76083a9b2e2f95aa3a68967d2f3e5753519fa6280cb0953019434b725",
                                "r": "0x4e1269bcd71b86dc91a08caeebe2aacf64345cd41285d707302011882eac1291",
                                "raw": "0xf9014c8301a3d4843b9aca00830f424094e4820c3d484bc0c6bd2da8114580141a273a970180b8e428fbdf0d000000000000000000000000000000000000000000000000000000000000004000000000000000000000000000000000000000000000000000000000000000a00000000000000000000000000000000000000000000000000000000000000040643962643435333366333931363332323462653266373436643364363533663333353661626262303636376339313664363430656363346439336261626136630000000000000000000000000000000000000000000000000000000000000017342c313534353939373630393331363034303430332c330000000000000000001ca04e1269bcd71b86dc91a08caeebe2aacf64345cd41285d707302011882eac1291a04d89f34622afafb8c8f9821e97c5ddc2146a4c4f0c7a0def4b5d6a07a2f80b4f",
                                "s": "0x4d89f34622afafb8c8f9821e97c5ddc2146a4c4f0c7a0def4b5d6a07a2f80b4f",
                                "standardV": "0x1",
                                "to": "0xe4820c3d484bc0c6bd2da8114580141a273a9701",
                                "transactionIndex": "0x1",
                                "v": "0x1c",
                                "value": "0x0"
                            }
                        ]
                    },
                    "currentBlock": 9866910,
                    "lastNodeList": 8057063,
                    "execTime": 72
                }
            }
        ]
    },
    {
        "descr": "kovan block with wrong transaction hashes",
        "success": false,
        "request": {
            "method": "eth_getBlockByHash",
            "params": [
                "0xfeb120ae45f1009e6c2289436d5957c58a15915288ec083658bd044101608f26",
                false
            ]
        },
        "response": [
            {
                "jsonrpc": "2.0",
                "result": {
                    "author": "0x00d6cc1ba9cf89bd2e58009741f4f7325badc0ed",
                    "difficulty": "0xfffffffffffffffffffffffffffffffe",
                    "extraData": "0xde830201088f5061726974792d457468657265756d86312e33302e30827769",
                    "gasLimit": "0x7a1200",
                    "gasUsed": "0x1ce0f",
                    "hash": "0xfeb120ae45f1009e6c2289436d5957c58a15915288ec083658bd044101608f26",
                    "logsBloom": "0x00080000000000000000000000000000000000000000000000000000000000000000000000000000000000000000000000000000000000000000000000000000000000000000000000000008000000000000000000000000000000000000000000000000000000000000100000000000000000000000800000000010000000000000000000000000000200002000000000400800000000000000000000000000000000004001000000000000000000000000000000000000000000000000000000000006000000000000000000000000000000000000000000000000000000000000000000000000000000400000000000100000000000000000000000000000",
                    "miner": "0x00d6cc1ba9cf89bd2e58009741f4f7325badc0ed",
                    "number": "0x967a46",
                    "parentHash": "0xc591335e0cdb6b21dc9af57567a6e075fc6315aff915bd79bf78a2c8815bc657",
                    "receiptsRoot": "0xfa2a0b3c0715e798ae41fd4645b0261ae4bf6d2c56f29da6fcc5fbfb7c6f19f8",
                    "sealFields": [
                        "0x8417098353",
                        "0xb841eb80c1a0be2eb7a1c14fc38759a0f9fe9c33121d72003025160a4b35119d495d34d39a9fd7475d28ba863e35f5103ed43e6f13ce31f026d3d29c0d2b1848fb4300"
                    ],
                    "sha3Uncles": "0x1dcc4de8dec75d7aab85b567b6ccd41ad312451b948a7413f0a142fd40d49347",
                    "signature": "eb80c1a0be2eb7a1c14fc38759a0f9fe9c33121d72003025160a4b35119d495d34d39a9fd7475d28ba863e35f5103ed43e6f13ce31f026d3d29c0d2b1848fb4300",
                    "size": "0x44e",
                    "stateRoot": "0xd618159b6dbd0c6213d90abbf01e06513104f0670cd79503cb2563d7ff116864",
                    "step": "386499411",
                    "timestamp": "0x5c260d4c",
                    "totalDifficulty": "0x94373700000000000000000000000484b6f390",
                    "transactions": [
                        "0x16cfadb6a0a823c623788713cb1eb7d399f89f78d599d416f7b91dca44eeb804",
                        "0x91458145d2c47527eee34e891879ac2915b3f8ba6f31911c5234928ae32cb191"
                    ],
                    "transactionsRoot": "0x4f1249c6378282b1f032cc8c2562712f2450a0bed8ce20bdd2d01b6520feb75a",
                    "uncles": []
                },
                "id": 77,
                "in3": {
                    "proof": {
                        "type": "blockProof",
                        "signatures": [],
                        "transactions": [
                            {
                                "blockHash": "0xfeb120ae45f1009e6c2289436d5957c58a15915288ec083658bd044101608f26",
                                "blockNumber": "0x967a46",
                                "chainId": null,
                                "condition": null,
                                "creates": null,
                                "from": "0x65fe9d374202f375a0941e6dd5d9097993468b68",
                                "gas": "0x2bf20",
                                "gasPrice": "0x4a817c800",
                                "hash": "0x26cfadb6a0a823c623788713cb1eb7d399f89f78d599d416f7b91dca44eeb804",
                                "input": "0xa9059cbb00000000000000000000000001503dfc5ad81bf630d83697e98601871bb211b60000000000000000000000000000000000000000000000000000000000089af8",
                                "nonce": "0x115",
                                "publicKey": "0x3453e6f377b3c7c0c2f4056bac30f5b5bff50d80a37214b7e6f1bcf827a7306a0ce20e953ce4910eeb04d687c4038254ab375bc3b80c22a55eb89b1015e19fe0",
                                "r": "0xc3851c659489b1b5f4f44a42a05148962f721dbd9cbc69177fe66af7410b2335",
                                "raw": "0xf8ac8201158504a817c8008302bf209484dd11eb2a29615303d18149c0dbfa24167f896680b844a9059cbb00000000000000000000000001503dfc5ad81bf630d83697e98601871bb211b60000000000000000000000000000000000000000000000000000000000089af81ca0c3851c659489b1b5f4f44a42a05148962f721dbd9cbc69177fe66af7410b2335a002abea1fe6883b8878abee70accf0f1293e781ae2ad1ecdea37587c8567071f2",
                                "s": "0x2abea1fe6883b8878abee70accf0f1293e781ae2ad1ecdea37587c8567071f2",
                                "standardV": "0x1",
                                "to": "0x84dd11eb2a29615303d18149c0dbfa24167f8966",
                                "transactionIndex": "0x0",
                                "v": "0x1c",
                                "value": "0x0"
                            },
                            {
                                "blockHash": "0xfeb120ae45f1009e6c2289436d5957c58a15915288ec083658bd044101608f26",
                                "blockNumber": "0x967a46",
                                "chainId": null,
                                "condition": null,
                                "creates": null,
                                "from": "0x39c39eed7bda0d6f1ac9d212e001ee704c3fe794",
                                "gas": "0xf4240",
                                "gasPrice": "0x3b9aca00",
                                "hash": "0x91458145d2c47527eee34e891879ac2915b3f8ba6f31911c5234928ae32cb191",
                                "input": "0x28fbdf0d000000000000000000000000000000000000000000000000000000000000004000000000000000000000000000000000000000000000000000000000000000a00000000000000000000000000000000000000000000000000000000000000040643962643435333366333931363332323462653266373436643364363533663333353661626262303636376339313664363430656363346439336261626136630000000000000000000000000000000000000000000000000000000000000017342c313534353939373630393331363034303430332c33000000000000000000",
                                "nonce": "0x1a3d4",
                                "publicKey": "0x2dc6aa0cf6b6b0414080b84f1735e02d04948689e8003a9c70ef586660b25c5187415eb76083a9b2e2f95aa3a68967d2f3e5753519fa6280cb0953019434b725",
                                "r": "0x4e1269bcd71b86dc91a08caeebe2aacf64345cd41285d707302011882eac1291",
                                "raw": "0xf9014c8301a3d4843b9aca00830f424094e4820c3d484bc0c6bd2da8114580141a273a970180b8e428fbdf0d000000000000000000000000000000000000000000000000000000000000004000000000000000000000000000000000000000000000000000000000000000a00000000000000000000000000000000000000000000000000000000000000040643962643435333366333931363332323462653266373436643364363533663333353661626262303636376339313664363430656363346439336261626136630000000000000000000000000000000000000000000000000000000000000017342c313534353939373630393331363034303430332c330000000000000000001ca04e1269bcd71b86dc91a08caeebe2aacf64345cd41285d707302011882eac1291a04d89f34622afafb8c8f9821e97c5ddc2146a4c4f0c7a0def4b5d6a07a2f80b4f",
                                "s": "0x4d89f34622afafb8c8f9821e97c5ddc2146a4c4f0c7a0def4b5d6a07a2f80b4f",
                                "standardV": "0x1",
                                "to": "0xe4820c3d484bc0c6bd2da8114580141a273a9701",
                                "transactionIndex": "0x1",
                                "v": "0x1c",
                                "value": "0x0"
                            }
                        ]
                    },
                    "currentBlock": 9866910,
                    "lastNodeList": 8057063,
                    "execTime": 72
                }
            }
        ]
    },
    {
        "descr": "kovan block",
        "success": true,
        "fuzzer": true,
        "request": {
            "method": "eth_getBlockByHash",
            "params": [
                "0xa49d4fb25b279a96217f68309a2e9bee95b996b56a5c223fda2c099934d74465",
                true
            ],
            "config": {}
        },
        "response": [
            {
                "jsonrpc": "2.0",
                "result": {
                    "author": "0x0010f94b296a852aaac52ea6c5ac72e03afd032d",
                    "difficulty": "0xfffffffffffffffffffffffffffffffe",
                    "extraData": "0xde830200088f5061726974792d457468657265756d86312e32392e30826c69",
                    "gasLimit": "0x7a1200",
                    "gasUsed": "0x455a5",
                    "hash": "0xa49d4fb25b279a96217f68309a2e9bee95b996b56a5c223fda2c099934d74465",
                    "logsBloom": "0x00000000000000000000000000000000000000000000000000000000000000000000000000000000000000000000000000000000000000000000000000000000000000000000000000000000000000000000000000000000000000000000000000000000000000000000000000000000000000000000000000000000000000000000000000000000000000000000000000000000000000000000000000000000000000000000000000000000000000000000000000000000000000000000000000000000000000000000000000000000000000000000000000000000000000000000000000000000000000000000000000000000000000000000000000000000",
                    "miner": "0x0010f94b296a852aaac52ea6c5ac72e03afd032d",
                    "number": "0x967a66",
                    "parentHash": "0x03ed475237eef651c61aaa3458a31b0244f650dbba7584650ffeb835f91fc53b",
                    "receiptsRoot": "0x11ed2599fe52737602c50996179636a57a702c0ee766b04d85f4e240363a8df7",
                    "sealFields": [
                        "0x841709838d",
                        "0xb8410958fdce1ab542f0834f2d7208f0b49dae25dfd177823c63efbb63740038d9e36c69822597247799d6f1f6cc34531d6891f34ff4142aef9221b55ba3b6c1b45901"
                    ],
                    "sha3Uncles": "0x1dcc4de8dec75d7aab85b567b6ccd41ad312451b948a7413f0a142fd40d49347",
                    "signature": "0958fdce1ab542f0834f2d7208f0b49dae25dfd177823c63efbb63740038d9e36c69822597247799d6f1f6cc34531d6891f34ff4142aef9221b55ba3b6c1b45901",
                    "size": "0x727",
                    "stateRoot": "0x388fbb23055cf7bd2e6c0f78b106153e5fea9853ce69ea56cf9721ee37792e26",
                    "step": "386499469",
                    "timestamp": "0x5c260e34",
                    "totalDifficulty": "0x94375700000000000000000000000484b6f336",
                    "transactions": [
                        {
                            "blockHash": "0xa49d4fb25b279a96217f68309a2e9bee95b996b56a5c223fda2c099934d74465",
                            "blockNumber": "0x967a66",
                            "chainId": null,
                            "condition": null,
                            "creates": null,
                            "from": "0x883341becd0366282c99f05fc92a56eff8d02b6c",
                            "gas": "0x5208",
                            "gasPrice": "0x77359400",
                            "hash": "0xf20cf2c45521fec21f356db69acac5be7de4fd99264ed98360e248bea705423d",
                            "input": "0x",
                            "nonce": "0x7063",
                            "publicKey": "0x745caf9b5bcc812d9b5defc55effc4a4db256b20a7adffa5c10c9a7610eebc5d99c2d34d8581fcf075df0e41aa3ec1580f8c8b8bb71f0de47a8aa69f626ee513",
                            "r": "0xdca7a1647f090d163796b1431bb5aa5821481300d19c115285d4ef19fc28d562",
                            "raw": "0xf8658270638477359400825208946907d0d42d6f41e3cac797ff38e65157373e51f380801ca0dca7a1647f090d163796b1431bb5aa5821481300d19c115285d4ef19fc28d562a0413d460bb90b61e6b897698d35eec8fbfd37a2205898c9f1c7af24acbccfcce3",
                            "s": "0x413d460bb90b61e6b897698d35eec8fbfd37a2205898c9f1c7af24acbccfcce3",
                            "standardV": "0x1",
                            "to": "0x6907d0d42d6f41e3cac797ff38e65157373e51f3",
                            "transactionIndex": "0x0",
                            "v": "0x1c",
                            "value": "0x0"
                        },
                        {
                            "blockHash": "0xa49d4fb25b279a96217f68309a2e9bee95b996b56a5c223fda2c099934d74465",
                            "blockNumber": "0x967a66",
                            "chainId": null,
                            "condition": null,
                            "creates": null,
                            "from": "0xe0426ceb64cda1c4ffdca5f80ecb7cbf5641f6ea",
                            "gas": "0xf4240",
                            "gasPrice": "0x3b9aca00",
                            "hash": "0xad72b65cd5e9666c23e5217579b41cb490fe0d74973aa41b77008a884058b91f",
                            "input": "0xc959d3200000000000000000000000000000000000000000000000000000000000000100000000000000000000000000000000000000000000000000000000000000016000000000000000000000000000000000000000000000000000000000000001a00000000000000000000000000000000000000000000000000000000000000200000000000000000000000000000000000000000000000000000000000000024000000000000000000000000000000000000000000000000000000000000002a0000000000000000000000000000000000000000000000000000000000000032000000000000000000000000000000000000000000000000000000000000003800000000000000000000000000000000000000000000000000000000000000040623537306235613861666230623639633665636162633933363030363131386234303962663839323165396632356531616537613138386635343930656330360000000000000000000000000000000000000000000000000000000000000015332c31353435393937383530383734303131382c3200000000000000000000000000000000000000000000000000000000000000000000000000000000000040666139663037633138646430646338396333623464396439643665626535613163613862356639323764333132306536333733613230653763646639373135660000000000000000000000000000000000000000000000000000000000000015332c31353435393937383531303435323733622c3200000000000000000000000000000000000000000000000000000000000000000000000000000000000040373761636365663362363261393932616230323766393264356337343530663366316161376231663263663335613138636561363063336265303332366462640000000000000000000000000000000000000000000000000000000000000044332c3135343539393738343737303232323034313232333063313431353139316433613236306230323137313830643261336433383264333733313339303733342c3235000000000000000000000000000000000000000000000000000000000000000000000000000000000000000000000000000000000000000000000040623435656237316137303131316539303432613937336234346137633766646562396330303465663336313466376461633961646432643239656565623430350000000000000000000000000000000000000000000000000000000000000044332c3135343539393738343737323130313238313233363133303532363331326332323138303730383235336430323161316230643339333433613039333331342c323500000000000000000000000000000000000000000000000000000000",
                            "nonce": "0x22cd",
                            "publicKey": "0x675487272c2613de0f701b2d80090c13b88504950d977ca91d5da1cbece5d5540fde2a275ab95dbddbb0caafa5b00c6a2a5f5a98701ecd61ce7f32a1be01bfd0",
                            "r": "0xdfcfe33addd45539725fc718c08d0ca6f86c2b0fb21542a90dc514869172fe9a",
                            "raw": "0xf9046c8222cd843b9aca00830f424094691c17f15e4bef38538c858ee0ea603ed4e8526580b90404c959d3200000000000000000000000000000000000000000000000000000000000000100000000000000000000000000000000000000000000000000000000000000016000000000000000000000000000000000000000000000000000000000000001a00000000000000000000000000000000000000000000000000000000000000200000000000000000000000000000000000000000000000000000000000000024000000000000000000000000000000000000000000000000000000000000002a0000000000000000000000000000000000000000000000000000000000000032000000000000000000000000000000000000000000000000000000000000003800000000000000000000000000000000000000000000000000000000000000040623537306235613861666230623639633665636162633933363030363131386234303962663839323165396632356531616537613138386635343930656330360000000000000000000000000000000000000000000000000000000000000015332c31353435393937383530383734303131382c3200000000000000000000000000000000000000000000000000000000000000000000000000000000000040666139663037633138646430646338396333623464396439643665626535613163613862356639323764333132306536333733613230653763646639373135660000000000000000000000000000000000000000000000000000000000000015332c31353435393937383531303435323733622c3200000000000000000000000000000000000000000000000000000000000000000000000000000000000040373761636365663362363261393932616230323766393264356337343530663366316161376231663263663335613138636561363063336265303332366462640000000000000000000000000000000000000000000000000000000000000044332c3135343539393738343737303232323034313232333063313431353139316433613236306230323137313830643261336433383264333733313339303733342c3235000000000000000000000000000000000000000000000000000000000000000000000000000000000000000000000000000000000000000000000040623435656237316137303131316539303432613937336234346137633766646562396330303465663336313466376461633961646432643239656565623430350000000000000000000000000000000000000000000000000000000000000044332c3135343539393738343737323130313238313233363133303532363331326332323138303730383235336430323161316230643339333433613039333331342c3235000000000000000000000000000000000000000000000000000000001ba0dfcfe33addd45539725fc718c08d0ca6f86c2b0fb21542a90dc514869172fe9aa00a3cfbf12493feafaeb3e103aed536c3950846a009c61c754b2b39c3c4c3b164",
                            "s": "0xa3cfbf12493feafaeb3e103aed536c3950846a009c61c754b2b39c3c4c3b164",
                            "standardV": "0x0",
                            "to": "0x691c17f15e4bef38538c858ee0ea603ed4e85265",
                            "transactionIndex": "0x1",
                            "v": "0x1b",
                            "value": "0x0"
                        }
                    ],
                    "transactionsRoot": "0x77c23ec86250c5b43282589f84d2e3069ee0439535a4c089fb636072b92e2344",
                    "uncles": []
                },
                "id": 77,
                "in3": {
                    "proof": {
                        "type": "blockProof",
                        "signatures": []
                    },
                    "currentBlock": 9861756,
                    "lastNodeList": 8057063,
                    "execTime": 75
                }
            }
        ]
    }
]